:0300030002AEC08A
:10AEC000C0E0C083C082901686E4F0A3F0D082D0A8
:04AED00083D0E03219
:10AD2200E4900000F0A3F0901688F0A3F0C28CC269
:0BAD32008D758CDCF58AD28CD2A92232
:10993900C2A3E4F593F594F591F592F595F596F5AD
:10994900B1F5B2F5B3F5B4F5C9F5CA75968475B232
:1099590042901335F0C2A67F017E0012AE09D2A64D
:10996900901335E004F0E0C3940240E912ADD91236
:10997900AA4312B08512AD3D12AF7912AAF512AC05
:0F9989009612A9A912A95812AFA912AD22D2AFF6
:0199980022AC
:03000B00027DAEC5
:107DAE00C0E0C0F0C083C082C0D075D000C000C09B
:107DBE0001C002C003C004C005C006C00712A5A5BD
:107DCE009002F5E004F0900550E004F09007ABE06F
:107DDE0004F0900001E004F07006900000E004F062
:107DEE00901689E004F07006901688E004F0D390A7
:107DFE001689E094C7901688E094004034E4F0A30E
:107E0E00F0901687E004F07006901686E004F0906D
:107E1E00122EE004F09013BAE004F070069013B93D
:107E2E00E004F090168FE004F0700690168EE004D9
:107E3E00F0D007D006D005D004D003D002D001D0A8
:0C7E4E0000D0D0D082D083D0F0D0E03241
:10A12F00129939900C98E0FF7004C2B68002D2B633
:10A13F00EFB4010312A903123707129F741297B2DB
:10A14F0012981412A09D12987612AD5812920BD33A
:10A15F00900001E094C7900000E0940040DFE4F02D
:07A16F00A3F012A38C80D6BF
:1060E900205665723A2000207C20004350552049F3
:1060F900443A2000566F6C746167653A2000205657
:106109007C200053544152543100555639385F3878
:1061190036385F3232303433305F4434004E4F43C7
:10612900414C4C00333133332E39304E000031327B
:106139003032322E383045005556393800000000CB
:106149000000000000000000000000000000000046
:106159000000000000003230322E3134312E313748
:10616900362E320000000000000000000000000090
:106179000000000000000000000000000000000016
:1061890000000000000000004869576946695F3354
:1061990034353241455F3247003133303133363897
:1061A9003430303000312C3433312E303430302C0F
:1061B9003433312E303430302C302C332C30200015
:1061C9000000000000000000312C3134342E363438
:1061D90030302C3134342E363430302C302C332CB2
:1061E900302C302000000000000000534F53000005
:1061F9000000000000000000000000000000000096
:096209000000000000000000008C
:10004600ECF5C3AF058FC41205DAF5C275C65A754D
:10005600C6A522FFE43401FEEC93FD12AAB6EC938A
:1000660022AD07AC0675C78075F51622ECF5C3AF51
:10007600058FC4227FD112AAB67FD202AAB67D010D
:0500860012AAB61D22C4
:107FB000901339EFF012A407128B44901339E06448
:107FC000017BFF7A6079E9703512A6497BFF7A61FF
:107FD00079131280347A6079F412A6497B017A16FB
:107FE00079311280347A6079FD12A6497B017A16C4
:107FF000797D12A6497BFF7A61790702A64912A60C
:108000007C7BFF7A6179131280437A6079F412A63F
:108010007C7B017A1679311280437A6079FD12A651
:108020007C7B017A16797D12A67C7BFF7A617907C9
:1080300012A67C2212A6497BFF7A6079F012A6492B
:108040007BFF2212A67C7BFF7A6079F012A67C7BF4
:02805000FF220D
:0EAFE500E4F5C7F5C5F5C675C3FF75C4FF22B8
:10AED40012006775C50112007212005200AFC2124F
:02AEE400AFE5D8
:01AEE6002249
:10AEE700AD07AC0612007212006B75C50312005253
:03AEF70002AFE5C2
:10AB5D0012006775C502120046000DBD00010C7490
:10AB6D000129F9E43AFA90133FE014F070E802AFCE
:01AB7D00E5F2
:07AAAF007F2E12AAB67F2FD3
:10AAB600AB07AA0612006B75C502EAF5C3AF038F92
:0CAAC600C4AF058FC21200520002AFE5C1
:10A9810012006775C5021205DA6012120046000D49
:10A99100BD00010C740129F9E43AFA80E912007250
:08A9A100E41200500002AFE5D2
:10A4BB00E4FFFE12AEE7E4901376F0A3F090137670
:10A4CB00E0FEA3E0FF245EF582740C3EF583E0FD15
:10A4DB0012AAB6901377E004F07006901376E0049E
:0AA4EB00F0C3901376E0940240D312
:01A4F5002244
:10AA4300E4FBFAAF03AE0212AED4745E2BF582744C
:10AA53000C3AF583EFF00BBB00010AE4B503E4EA1B
:03AA6300B402E05A
:01AA660022CD
:0526B100901339EFF069
:1026B600E4FFFE12AEE7E4FDFF12AAB67D147F0129
:1026C60012AAB6E4FD7F0212AAB67F0312AAB67F4B
:1026D6000412AAB67F0512AAB67F0612AAB67D0311
:1026E6007F0712AAB67BFF7A61792690133F74079B
:1026F600F07F0812AB5D7D077F0F12AAB67F10121E
:1027060000847F1112AAB67D217F1212AAB67D2FF0
:102716007F1312AAB67D5B7F1412AAB6E4FD7F155D
:1027260012AAB67D027F1612AAB61D7F1712AAB686
:102736001D7F1812AAB67F1912AAB67F1A12AAB658
:102746007F1B12AAB67F1C12AAB67F1D12AAB60D4F
:102756007F1E12AAB61D7F2A12AAB60D7F2B12AAB9
:10276600B67D157F2C12AAB6E4FD7F2D12AAB60DF2
:1027760012AAAF7F3A12AAB61D7F3B12AAB67F3CB9
:1027860012AAB67F3D12AAB67F3E12AAB67F3F12A4
:10279600AAB67BFF7A61792D7F2012A9817A6179A9
:1027A600377F3012A9817A6179417F4012A981E48D
:1027B600FD7FA012AAB60D7FA112AAB67FA212AA09
:1027C600B61D7FA312AAB67FA412AAB67FA512AA27
:1027D600B60D7FA612AAB61D7FA712AAB60D7FA8B0
:1027E60012AAB67FA912AAB67FAA12AAB67FAB1200
:1027F600AAB67FAC12AAB67FAD12AAB67FAE12AA4F
:10280600B61D7FAF12AAB6901339E07BFF70087A27
:102816006179AE7F8080087A6179D17F807E0012EF
:10282600A9817D017FB07E0012AAB67FB112AAB639
:102836007FB212AAB61D7FB312AAB67D387FB41234
:10284600AAB67DF47FB512AAB6E4FD7FB612AAB683
:102856007FB712AAB67FB812AAB67FB912AAB67FF8
:10286600BA12AAB60D7FBB12AAB67D5C7FBC12AAAD
:10287600B67D507FBD12AAB6E4FD7FBE12AAB67D14
:10288600B47FBF12AAB6E4FCEC24C0FFE433FEEC2E
:1028960090615F12005F60050CECB420EBE4FCEC89
:1028A600240090619112005960050CECB40FF0E41D
:1028B600FCEC24109061A212005960050CECB40FD8
:1028C600F0E4FCEC24B0FFE43401FEEC9061F41279
:1028D600005F60050CECB41EEAE4FD7FD07E0112B9
:1028E600AAB60D12007A7FD312AAB67D067FD4123D
:1028F600AAB6E4FD7FD512AAB67FD612AAB67FD7AE
:1029060012AAB67BFF7A61790C90133F7407F07FA9
:102916002012AB5D7F271200847F2812AAB67F297A
:1029260012AAB67D647F2A12AAB67D017F2B12AA4F
:10293600B61D7F2C12AAB67F2D12AAB612AAAF1206
:1029460070C7E4FD7F307E0112AAB67F3112AAB6A7
:1029560012007A7FDF12AAB67D037F1F1E02AAB677
:10ADD9007F1F7E0012AED4EF64037F016009122643
:08ADE900B175C7207F00222292
:1040750060FA00CA00000000000000000000000017
:10408500000000000000000000000000000000002B
:10409500000000000000000000000000000000001B
:1040A500000000000000000000000000000000000B
:1040B50000000000000000000000000000000000FB
:1040C50000000000000000000000000000000000EB
:1040D50000000000000000000000000000000000DB
:1040E50000000000000000000000000000000000CB
:1040F50000000000000000000000000000000000BB
:1041050000000000000000000000000000000000AA
:10411500000000000000000000000000000000009A
:10412500000000000000000000000000000000008A
:10413500000000000000000000000000000000007A
:10414500000000000000000000000000000000006A
:10415500000000000000000000000000000000005A
:0E41650000000000000000000000000000004C
:08B0AD007F1D7EB7DEFEDFFC13
:01B0B5002278
:10ADF100AD07AC06ED4C600FED1DAE0470011C4EAD
:08AE0100600512B0AD80F122E2
:0CB039007F037ECF7D1CDDFEDEFCDFFA15
:01B0450022E8
:10AE0900AB07AA06EB4A600FEB1BAE0270011A4EA4
:08AE1900600512B03980F1223E
:10ABDF00E0FF901346E0FE04F0747D2EF582E4341E
:0FABEF0016F58322901346E0FF04F0747D2F22A9
:0AB0850043918075DE0F75BC872231
:10A71200E4F5BDF5BEE5BC548044404FF5BC0000F5
:10A722000000E5BC30E5FB53BCDFE5BEC4540FFDC1
:10A732007C00AFBDEF75F010A42DFFEC35F0FE22CA
:108B44007F0712A712AC06AD07E41203C3901340CB
:108B54001208987FBA7E497D1C7C41901340E0F84E
:108B6400A3E0F9A3E0FAA3E0FB12018E7B0A7AD713
:108B7400792378421202971203FC901344EEF0A377
:108B8400EFF0129C29C3901345E094E8901344E05D
:108B94009403E490134650028008F090162C12AB14
:108BA400DFEFF090162D12ABDFEFF012ABF312AB48
:108BB400EB742EF090162E12ABDFEFF012ABF31223
:048BC400ABEBE4F043
:018BC800228A
:06B0E6002000200D0A000D
:10ABFE007C00AF03AE021206667C007D0A1206666A
:0FAC0E00ED24302274182FF582E43416F58322DA
:10AF6800EFD394394006EF24C9FF800474D02FFF33
:01AF780022B6
:10AF2000EF540FFFD39409EF50042430FF2224374D
:02AF3000FF22FE
:109C2900AB07AA067C277D1012AC0490162FF07C96
:109C3900037DE812AC0090162CF07D6412ABFEA3F4
:109C4900F07D0A12ABFEA3F0AE02AF0312AC07FF20
:109C5900901630F090162FE0901622F090162CE016
:109C6900901623F090162DE0901624F090162EE011
:0B9C7900901625F0A3EFF0E4A3F0220A
:10AA6700901345EFF0E0C4540FFF12AF2012B0C6A9
:10AA7700901345E0FF12AF2012B0C67BFF7AB07982
:04AA8700E602A67CC1
:1093550090133EEBF0A3EAF0A3E9F0A3ECF0A3ED44
:01936500F017
:109366007FC012AA67E4FF12AA67E4901343F0A332
:10937600F0901341E0FEA3E0FFA3E0FCA3E0FDC3F1
:109386009FEC9E502690133EE0FBA3E0FAA3E0F983
:109396008D828C831205F3FF12AA67901344E004B2
:1093A600F070CE901343E004F080C67FC012AA6727
:0993B6007BFF7AB079E802A67C85
:10A407007EF1E4FDA806E6FC0EC4540FFF12AF2050
:10A41700ED25E02431F582E43416F583EFF0AF043F
:10A4270012AF20ED25E02432F582E43416F583EFF0
:0BA43700F00DEDB407CEE490163FF0EE
:01A4420022F7
:0E8C4D0090134EEEF0A3EFF0A3ECF0A3EDF0C9
:108C5B00E4FFFEEEFD90134FE02DFD90134EE0343C
:108C6B0000FC745E2DF582740C3CF583E0F9600B0F
:108C7B0012AC12E9F00F0EEEB406D812AC12742D32
:108C8B00F00F901350E0FCA3E0245EF582740C3CD3
:108C9B00F583E0FEC3940AEE75F00A50028014844B
:108CAB0075F00A84E5F02430FD12AC12EDF00FEEF6
:108CBB0075F00A84E5F02430FE12AC12EEF00F12C0
:048CCB00AC12E4F013
:018CCF002282
:10AD5800129AB3BF051312A7D012A6AF7F027E00C6
:0AAD680012AE09126EDA128D5322AA
:10A88200475053204F4E0D0A0057616974204750BC
:10A8920053204C6F636B200D0A00475053204F46E4
:0BA8A200460D0A0041505556393800A1
:1086EF0074B12FF582E43413F583E0FF90133AE071
:1086FF002402F582E43400F583EFF090133AE0049E
:10870F00F02290133AE02402F582E43400F583223C
:10871F00E4FAF9F890133CE0FCA3E0FDA3E0FEA31C
:10872F00E0FF12A1FFE47B0AFAF9F812A1FFEB2494
:10873F0030227440F0901339E004F022901339E0A6
:10874F00FFC3940622901339E0FFC322E4FAF9F82D
:10875F00E0FCA3E0FDA3E0FEA3E0FF22900C88E085
:0F876F00640122F583E025E0FE90133AE02F220B
:10110800900C6EE0FF90133BF0BF0103126DD5E425
:1011180090133AF012876B703F90133BE0B4011FB5
:10112800E4901339F012874B504774552FF582E439
:101138003416F583E025E01286FA12874480E6E447
:10114800901339F012874B5028EF90A8A69325E00A
:101158001286FA12874480ECE4901339F012874B18
:10116800500FEF90A8A69325E01286FA12874480C4
:10117800EC1287117460128709E4901339F0128712
:101188004B500BA3E02F12871512874180F0E49093
:101198001339F012874B502574662FF582E4340C0E
:1011A800F583E06018901339E02466F582E4340C86
:1011B800F583E025E01286FA12874480D6900C6DFC
:1011C800E0FF900E45E0FE900E4DE0FD90133A745E
:1011D8000DF0EE700CED7009EF25E04461FF02128E
:1011E800BEEF25E044E01286FAEE6070E490133911
:1011F800F012874B500BA3E02F12871512874180FE
:10120800F0E4901339F012874B5025743E2FF58285
:10121800E4340EF583E06018901339E0FF243EF5BE
:1012280082E4340E128772128715EE12874380D635
:1012380090133AE02406F0900E45E025E04460FF64
:1012480090133AE0FE128715EFF0ED700C74022E41
:10125800128717E04401F0800012870AED605AE413
:10126800901339F012874B500BA3E02F12871512F9
:10127800874180F0E4901339F012874B502574466B
:101288002FF582E4340EF583E06018901339E0FFFF
:101298002446F582E4340E128772128715EE1287FF
:1012A8004380D690133AE02406F0900E4DE025E0F6
:1012B8004461FF90133A1286FE1287117403128755
:1012C8000912871474F012870912876B60030213DE
:1012D800A290133BE0B4011FE4901339F012875435
:1012E800940E400302149574412FF582E4341612CB
:1012F80086F712874480E6900C701286F9E4901302
:1013080039F01287549408501074FB2FF582E43496
:10131800131286F712874480E99013B8E0B40205E7
:10132800900D1A8003900C711286F9E4901339F02D
:101338001287549409501074E72FF582E43413127D
:1013480086F712874480E99013B8E0B40205900D3F
:101358001B8003900C721286F99013AF1216841238
:101368008714742F1287099013E0121684128714B9
:10137800742F12870912871474411287091287146F
:10138800743D128709E4901339F012874B40030229
:1013980014951286EF12874480F0900C701286F92B
:1013A800E4901339F012875494085010747E2FF586
:1013B80082E4340C1286F712874480E9900C71128B
:1013C80086F9E4901339F012875494095010748EFA
:1013D8002FF582E4340C1286F712874480E9900CCA
:1013E80072E0FF128711EF121628128714742F1259
:1013F8001628128714742F12870912871474411241
:101408008709128714743D128709900D87E0FEA39F
:10141800E07C002400FDEC3EFCE41203C37BA17ACF
:10142800F87951784012018E1203FC90133C12088F
:10143800987BA07A86790178001287239013B1F0FF
:10144800E47B107A271287219013B2F0E47BE87AC4
:10145800031287219013B3F07B6412871F9013B493
:10146800F07B0A12871F9013B5F07B0A90133C1289
:10147800875B12873A9013B6F0E4A3F0901339F023
:1014880012874B50081286EF12874480F3E49013BA
:1014980039F0128754943C502A749E2FF582E43414
:1014A8000CF583E0FF601C1286FBE0FFD3946440D8
:1014B8000D74022F128717747E1287098005128710
:1014C8004480CF127A29900C9CE0640170511287F5
:1014D8006B704C12871174201287097B6490141D5D
:1014E80012875B120772129C2990162F1286F990A8
:1014F800162C1286F990162D1286F990162E128641
:10150800F9128714742E1287099016301286F91270
:101518008714744B128709128714746D1287099007
:101528000C9AE06401703612871174201287091230
:101538008B44E4901339F0901339E0247DF582E46C
:101548003416F583E0FF600D128711EF128743A36D
:10155800E004F080E21287117456128709123707E7
:10156800900C9BE064017036300F331287117420A1
:10157800128709E4901339F0901339E02464F58256
:10158800E43415F583E0FF600D128711EF128743ED
:10159800A3E004F080E21287117443128709900CCB
:1015A80099E064017046300F431287117420128746
:1015B80009E4901339F0901339E02459F582E434A2
:1015C80015F583E0FF600D128711EF128743A3E042
:1015D80004F080E212871174681287091287147464
:1015E80050128709128714746112870912876B7069
:1015F80024900C9DE06401701C12871174201287DE
:101608000912871474531287099013D31286F9901C
:0F16180013D41286F990133AE09002F2F07F019A
:1016270022F090133AE004F0E4FFFE129C29901692
:101637002DE0FF90133AE02402F582E43400F583AD
:10164700EFF090133AE004F090162EE0FF90133A73
:10165700E02402F582E43400F583EFF090133AE0DA
:1016670004F0901630E0FF90133AE02402F582E48C
:101677003400F583EFF090133AE004F022E0FEA384
:10168700E0FF129C2990162DE0FF90133AE0240208
:10169700F582E43400F583EFF090133AE004F0901C
:1016A700162EE0FF90133AE02402F582E43400F5A9
:1016B70083EFF090133AE004F0901630E0FF9013B8
:1016C7003AE02402F582E43400F583EFF090133A10
:0416D700E004F02219
:10A74200900C8BE0B4010D20A70AD2A77BFF7AA858
:10A7520079828010900C88E0B4010C2003097BFF01
:10A762007AA8798B02A67C121108E4FF1281942246
:10920B00900C60E0B40129900C5EE0FEA3E07C00C2
:10921B002400FFEC3ECF24FFCF34FFFED390168FFC
:10922B00E09F90168EE09E4007E4F0A3F012A74259
:10923B00900C60E0B401047F0180027F00900C6110
:10924B00E0B401047E0180027E00EE4F6024900C9E
:10925B008BE0B4011D900C88E0B4011630A71330DD
:10926B00031012A742C2A7C2037BFF7AA8799C12F4
:03927B00A67C22AC
:10975000444947492031204F4E0D0A0044494749AA
:109760002031204F46460D0A004449474920322007
:109770004F4E0D0A00444947492032204F46460DBE
:109780000A004E4F57205253540D0A005749444582
:1097900031200000574944453220000057494445D4
:1097A0003120000057494445322000003132333423
:0297B00035364C
:109CDC00FD743A2EF582E43413F583EDF0743B2FCA
:109CEC00F582E43413F583E4F0901344E004F0229D
:109CFC00E02408F582E43400F583E022901337E089
:109D0C00FBA3E0FAA3E0222402F582E43400F583FD
:109D1C0022743B2EF582E43413F5832274372CF530
:079D2C0082E43413F58322E9
:106BC700E4901344F0901344E0FFC394065011E09F
:106BD700FE2436F582E4340EF583E0129CDC80E572
:106BE7009013557401F0A37413F0A3743AF07B016A
:106BF7007A0079CA12796A901337EBF0A3EAF0A307
:106C0700E9F0129D084A4B7003026CC2E4901344EA
:106C1700F0901344E0FFC394085016129D08F990B2
:106C27001344E0FEF5827583001205F3129CDC80A5
:106C3700E0901340E0B44111A3E0B4310C900E553D
:106C4700126CC57A977950804E901340E0B4411585
:106C5700A3E0B43010E4900E55F012A4BB7BFF7A8A
:106C670097795C8032901340E0B44211A3E0B431CD
:106C77000C900E5D126CC57A977969801A90134053
:106C8700E0B44219A3E0B43014E4900E5DF012A40E
:106C9700BB7BFF7A97797512A67C7F012290134000
:106CA700E0B45214A3E0B4300F7BFF7A97798212D5
:0D6CB700A67C75C7207F01227F01227F008F
:0A6CC400227401F012A4BB7BFF2232
:0E892200901337EBF0A3EAF0A3E9F0A3EDF019
:10893000129CFC541EC313FF70037F01227E06901D
:10894000133B7420F0A3DEFCE4FE901337129D0B62
:10895000F98E827583001205F3FD7002800A129D64
:108960001DEDF00EEEB406E2E4FE90133AE02E1296
:108970009D13E0C313FD129D1DE06D60037F002277
:108980000EEEB406E51FEF25E0FF90133AE0FE126D
:108990009CFD54E1F074082E129CFF4FF0EF70091B
:0B89A00090133A129CFC4480F07F0210
:0189AB0022A9
:028A3500AA078E
:108A37009002F2E0FED39496507B900C66E060754E
:108A4700AD06C3EE9A04FEE4FCECC39E5018740214
:108A57002D129D15E0FB74092DF582E43400F58392
:108A6700EBF01D0C80E37C069013377440F0A3DC19
:108A7700FCE4FC74662CF582E4340CF583E0FD60BD
:108A87000EED25E0FD129D28EDF00CECB406E49008
:108A97000C6DE025E044E090133DF0E4FC129D28C6
:108AA700E0FFEA2C129D13EFF00CECB407EF9002F5
:058AB700F2E02407F0CD
:018ABC002297
:10A5DE00900E33E0D394004021E4901337F0900EA8
:10A5EE0033E0FF901337E0C39F500F7F287E001299
:10A5FE00AE09901337E004F080E47F067E0012AEC1
:06A60E00097F01028194A6
:108D5300126BC7900E55E07006900E5DE060649054
:108D6300000FE020E05D901336740DF0E4901335AE
:108D7300F0900E55E0600C7A0E794E128DC7BF024B
:108D8300028010900E5DE060167A0E7956128DC740
:108D9300BF020C901336E004FF128A3502A5DE9061
:108DA3001336E02409F582E43400F583E020E01370
:108DB300901336E02407F0901335E004F0E0C394F9
:038DC3000640AEB9
:0D8DC600227B01901336E004FD1289222269
:1070C700E490133AF090133AE0FD24E090978C1285
:1070D700716C40F17FE61271A57FE71271989013EA
:1070E7003AE0FD24E890979412716C40F17FEE121C
:1070F70071A57FEF1271ADE490133AF090133AE067
:10710700FD24F090979C12718240F17FF61271ADC9
:107117007FF712719890133AE0FD24F89097A41224
:10712700718240F1E4FD7FFE7E0112AAB67D017FE8
:10713700FF7E0112AAB6E490133AF090133AE0FDED
:1071470024D8FFE43401FEED9097AC93FD12AAB664
:1071570090133AE004F0E0C3940640DFE4FD7FDEDD
:057167007E0102AAB642
:10716C00FFE43401FEED93FD12AAB690133AE0044D
:10717C00F0E0C3940622FFE43401FEED93FD12AA65
:10718C00B690133AE004F0E0C39406227D017E0130
:10719C0012AAB6E490133AF022E4FD7E0112AAB6CC
:0971AC0022E4FD7E0112AAB622C4
:10350700000011892312329B462457AD653674BFDC
:103517008C489DC1AF5ABED3CA6CDBE5E97EF8F78C
:10352700108101083393221A56A5472C75B7643EBC
:103537009CC98D40BFDBAE52DAEDCB64F9FFE8766C
:103547002102308B02101399672676AF443455BD9C
:10355700AD4ABCC38E589FD1EB6EFAE7C87CD9F54C
:103567003183200A1291031877A7662E54B5453C7C
:10357700BDCBAC429ED98F50FBEFEA66D8FDC9742C
:103587004204538D6116709F042015A9273236BB5C
:10359700CE4CDFC5ED5EFCD7886899E1AB7ABAF30C
:1035A7005285430C7197601E14A1052837B3263A3C
:1035B700DECDCF44FDDFEC5698E98960BBFBAA72EC
:1035C7006306728F4014519D252234AB063017B91C
:1035D700EF4EFEC7CC5CDDD5A96AB8E38A789BF1CC
:1035E7007387620E5095411C35A3242A16B10738FC
:1035F700FFCFEE46DCDDCD54B9EBA8629AF98B70AC
:1036070084089581A71AB693C22CD3A5E13EF0B7DB
:10361700084019C92B523ADB4E645FED6D767CFF8B
:1036270094898500B79BA612D2ADC324F1BFE036BB
:1036370018C109483BD32A5A5EE54F6C7DF76C7E6B
:10364700A50AB48386189791E32EF2A7C03CD1B59B
:10365700294238CB0A501BD96F667EEF4C745DFD4B
:10366700B58BA40296998710F3AFE226D0BDC1347B
:1036770039C3284A1AD10B587FE76E6E5CF54D7C2B
:10368700C60CD785E51EF497802891A1A33AB2B35B
:103697004A445BCD695678DF0C601DE92F723EFB0B
:1036A700D68DC704F59FE41690A98120B3BBA2323B
:1036B7005AC54B4C79D7685E1CE10D683FF32E7AEB
:1036C700E70EF687C41CD595A12AB0A3823893B11B
:1036D7006B467ACF485459DD2D623CEB0E701FF9CB
:1036E700F78FE606D49DC514B1ABA02292B98330FB
:1036F7007BC76A4E58D5495C3DE32C6A1EF10F78AB
:05927E00901343EDF028
:1092830074FFA3F0A3F0901343E0D39400403F1284
:1092930005DAFF901344A3E06F25E0FFE433FE7487
:1092A300072FF58274353EF583E493FC740193FD37
:1092B300901344E0FFECFEED6FFFEEF0A3EFF090B0
:1092C3001343E014F0740129F9E43AFA80B89013D7
:1092D30044E0FEA3E0F4FFEEF4FCEF901691F0AE51
:0692E30004EE901690F06D
:0192E9002262
:10AC3C00C313F04480F0A3E004F0E022E02402F51A
:0EAC4C0082E43400F5832290168AE06403222D
:0CB06D00E4F5D875F9FA75E910D2DE227E
:0EAFF300E4F5D875F9FDF5E9D2DE30DFFD2278
:109FBF007B017A0079029002F2E024FEFD12927E7C
:109FCF009002F2E0FE2400F582E43400F583E0FF16
:109FDF00901691E06F60037F002274012EF582E4EA
:109FEF003400F583E0FF901690E06F60037F00224E
:0A9FFF009002F2E024FEF07F012240
:10865E00E490168AF0A3F012B0F8EF30E004C29660
:10866E008002D296A2969201E490168CF090169803
:10867E00F012AFF390168BE0FFC313F0A3E0B40635
:10868E0016901698E004F0E0B4030C90168A74036A
:10869E00F0E490168CF022E490168CF0C2022002C8
:1086AE00D012B06D20DF2612B0F8EE20E207901641
:1086BE008A7404F022EF30E004C2968002D296A2B1
:1086CE0096300101B350DDA2969201D2022002CE65
:1086DE0090168BE012AC3CB407C490168A7405F069
:0186EE002269
:10889700E490168DF0901699F0901699E0C394081D
:1088A700507812B06D20DF2C12B0F8EE20E207905E
:1088B700168A7404F022EF30E004C2968002D29642
:1088C700A296300101B35008A2969201D202800409
:1088D700C20280D120021A90168BE0FF12AC3CB482
:1088E700070790168A7405F022901699E004F08025
:1088F700A812AFF390168CE0FFB40604A37401F03E
:10890700EF6405600D90168BE0C313F0901699E0A5
:0A89170004F0E490168CF00288A032
:018921002233
:108DD300E49002F2F012865E12AC5360037F01222C
:108DE30090168BE0647E60037F02221288979016B0
:108DF3008BE0FEB47E0812AC5360F07F0322E49054
:108E030002F2F012AC48EEF09002F2E004F01288A5
:108E13009712AC5360037F042290168BE0FF9002FD
:108E2300F212AC48EFF09002F2E004F0E0D3947851
:108E330040037F052290168DE0B401D29002F2E048
:0E8E430014F0129FBFBF01037F06227F07229B
:109EDC00120898E47B597A20901340F9F8E0FCA31F
:109EEC00E0FDA3E0FEA3E0FF02A1FF9013E07D0ADA
:109EFC00E0FEA3E0FF7C00020666E024D075F00AC9
:109F0C00A4FFA3E024D02F241C22AC00AD01AE0290
:0C9F1C00AF03020898A3A3A3E0242122B5
:1055EA00EFB40700504A9055F7F828287302560C72
:1055FA0002561002561802561D02562402562C0252
:10560A0056337C0180167C017D01E4FE80267C01F4
:10561A00E480187C01E4FDFE801AE4FC7D017E0131
:10562A008012E4FC7D01FE800BE4FCFD7E01800417
:10563A00E4FCFDFEECB401159013FBE0FFB4200876
:10564A00901655745AF0800DEF242080049013FBB5
:10565A00E0901655F0EDB401159013FCE0FFB4206C
:10566A0008901656745AF0800DEF24208004901387
:10567A00FCE0901656F0EEB401159013FDE0FFB46D
:10568A002008901657745AF0800DEF242080049059
:10569A0013FDE0901657F0901402E0B44E199013DF
:1056AA00FEE0FFB42008901658745AF0801BEF24CD
:1056BA0020901658F080129013FEE0FF901658B40E
:1056CA002005744CF08002EFF090165FE0B4641984
:1056DA00901400E0FFB42008901659745AF0801B09
:1056EA00EF2420901659F08012901400E0FF9016D3
:1056FA0059B42005744CF08002EFF09013EFE0B437
:10570A005717901401E0FFB4200790165A745AF004
:10571A0022EF242090165AF022901401E0FF9016EE
:0A572A005AB42004744CF022EFF092
:015734002252
:1098D8009016417460F09013E8E024D075F00AA463
:1098E800FF9013E7E024D075F064A42FFF9013E9EC
:1098F800E024D02FFFC3940A5005EF24768027EF89
:10990800C39464500DEF241C901642F0E490165F47
:10991800F022EFC3946E5005EF24088009EFC3943A
:10992800B4500DEF24B8901642F090165F7464F0AE
:01993800220C
:106DD5001298D89013EA129F06901643F0C3942692
:106DE5005004E0243CF09013ED129F06901644F0F9
:106DF500129EF7AB07EBC39414EB241C901645F0D9
:106E0500129EF7AB059013AF7D64129EFCEF241C18
:106E1500FFEB75F00AA42F901646F09013AFE0FE35
:106E2500A3E0FF7C007D64120666AF05EF241C908D
:106E35001647F09013B8E0B4020D900D1BE09016C4
:106E450048F0900D1A800B900C72E0901648F09067
:106E55000C71E0901649F09013CFE0FCA3E0FDA380
:106E6500E0FEA3E02410FFEE3427FEE43DFDE43C04
:106E7500FC901340129EDC901344129EDC90134844
:106E8500129F16E47B5BFA901348129EE790134C11
:106E9500120898E47B5BFAF9F8901348129EE99082
:106EA5001350129F1690164A7460F0901344129F67
:106EB5002190164BF090134C129F2190164CF09098
:106EC5001350129F2190164DF0A3747DF0900C6F16
:056ED500E0FF0255EA98
:105C2D00EF2BFBEE3AFAED39F9EC38F890133EE034
:105C3D00FEA3E0FFE4FCFDEB2FFFEA3EFEED39FD98
:105C4D00EC38FCEF249BFFEE34A1FEED34FBFDECB4
:105C5D0034FFFCA31208987F0122901340E0FCA3AF
:105C6D00E0FDA3E0FEA3E022FD74B22FF582E43443
:105C7D0014F58322EE75F00A84E5F0243022F583C5
:105C8D00E0FD90133EE4F0A3EDF0E4FCFD7B5BFA48
:105C9D00F9F80206E774022FF582E43400F583E08B
:105CAD0022E4FDFC901340E0F8A3E0F9A3E0FAA391
:105CBD00E0FBC3020812FEED9400FDEC9400FC9095
:105CCD00134002089890133AE0FEA3E0FFE4FCFDB8
:105CDD007B597A20F9F80206E7F583E090133CFF33
:105CED007E00EEF0A3EFF022F583E024E49013356F
:105CFD00F02224E4FFE034FFFE7C007D0A22F583D0
:105D0D00E090133AFDE4F0A3EDF02274209014AB73
:105D1D00F09014E22274209014AEF09014DD222441
:105D2D0007F582E43400F583E0229014A87420F086
:105D3D0022901345E0FFC3229014A97420F0229005
:105D4D001346E0FFC3229014AA7420F02275F00AC6
:045D5D008424302248
:10A6E1007F06E4FE125CA220E00E74072FFF0EEE3F
:10A6F100D3940840EF7F00220F0F0F125CA2FEB42B
:10A7010027028004EEB46006901693EFF0227F00DA
:01A711002225
:103ADA00E4FEFDFC74022C125CA5C313FB74442C97
:103AEA00F582E43413F583EBF00CECB406E690139C
:103AFA0044E0FCC39450400DECD394595007EC2495
:103B0A00E09014A8F0901344E0FFC39441400DEFF5
:103B1A00D3944A5007EF24EF9014A8F0901344E08E
:103B2A00FFB44B03125D37EFB45A03125D3790139B
:103B3A0044E0B44C03125D37901344E0FFC3943A57
:103B4A0050059014A8EFF0125D3E9450400DEFD34B
:103B5A0094595007EF24E09014A9F0125D3E944165
:103B6A00400DEFD3944A5007EF24EF9014A9F09038
:103B7A001345E0FFB44B03125D45EFB45A03125DDF
:103B8A0045901345E0B44C03125D45125D3E943AEC
:103B9A0050059014A9EFF0125D4C9450400DEFD3EC
:103BAA0094595007EF24E09014AAF0125D4C944106
:103BBA00400DEFD3944A5007EF24EF9014AAF090E7
:103BCA001346E0FFB44B03125D53EFB45A03125D80
:103BDA0053901346E0B44C03125D53125D4C943A71
:103BEA0050059014AAEFF0901347E0FFC394504099
:103BFA0009EF24E0125D1A744EF0901347E0B45AAC
:103C0A0006125D18744EF0901347E0FFB44C06128A
:103C1A005D187453F0EFC3943A5007EF125D1A74AB
:103C2A0053F09014AC742EF0901348E0FFC39450F4
:103C3A004009EF24E09014ADF07A64901348E0B4A0
:103C4A005A089014AD7420F07A64901348E0FFB4D7
:103C5A004C089014AD7420F0E4FAEFC3943A50077C
:103C6A009014ADEFF0E4FA901349E0FFC39450408A
:103C7A0009EF24E0125D247457F0901349E0B45A16
:103C8A0006125D227457F0901349E0FFB44C0612F5
:103C9A005D227445F0EFC3943A5007EF125D247425
:0F3CAA0045F09014E2E09014AFF0E4A3F0AF0205
:013CB90022E8
:101A730012A6E1EF7006901692F0FF22123ADA9066
:101A83001693E0FD2403F582E43400125CF5EFB411
:101A93006404E02464F0901335E0FFC394B4400A77
:101AA300EFD394BD5004E024B0F0901335E0FFC3AE
:101AB30094BE400AEFD394C75004E02442F090133D
:101AC30035E0FE75F06484243090149AF0EE75F0DE
:101AD3000A84125C82A3F0901335E0125C829014A6
:101AE3009CF074042DF582E43400125CF5C3943C3D
:101AF3004004E024C4F0901335E0FD125D5A9014C5
:101B03009DF0ED125C82A3F0A3742EF0901693E087
:101B1300FD2405F582E43400125CF5E0FE125D5A03
:101B23009014A0F0125C81A3F09014DDE09014A255
:101B3300F0E4A3F074062DF582E43400F583E0FFAE
:101B4300901336E4F0A3EFF0901693E0125D2C901F
:101B53001338125CEC24E4FFEE125D03120666AA4E
:101B630006AB07901337E0901336125CFF1206544E
:101B7300EF2BFFEE3AFEE4FD125CCC7F207E0312D6
:101B83005CAE400C125C679420FFEE9403125CC3BE
:101B9300125C67FFEC1203BE7BF67A2879947841D6
:101BA30012018E1203FC121DCB90162FE09014F736
:101BB300F090162CE09014F8F090162DE09014F9A4
:101BC300F090162EE09014FAF0A3742EF0901630D5
:101BD300E09014FCF0E4A3F0901693E0FF125D2C68
:101BE300901338125D1174082FF582E43400F583E5
:101BF300E0FB7A00901339E0901338125CFF120671
:101C0300667E007F64120654EB24E4FDE434FFCDCA
:101C13002FFFED3EFEE4FCFD125CCC7F907E0112B3
:101C23005CAE400C125C679490FFEE9401125CC3AF
:101C3300901340121DDF90162DE09014E3F09016E0
:101C43002EE09014E4F0901630E09014E5F0E4A355
:101C5300F0FF901693E0F9240EF582E43400F58347
:101C6300E0647D703B901693E0FF240BF582E4342F
:101C730000125D0B740C2FF582E43400125CE674E1
:101C83000D29F582E43400125C8BC004C005C00644
:101C9300C007125CD2D003D002D001D000125C2D59
:101CA300901693E0F9240FF582E43400F583E064A1
:101CB3007D703B901693E0FF240CF582E434001210
:101CC3005D0B740D2FF582E43400125CE6740E296B
:101CD300F582E43400125C8BC004C005C006C00763
:101CE300125CD2D003D002D001D000125C2DEF647D
:101CF30001705A125C67FFEC1203BE9014DE1208E7
:101D030098125C67FFEC339013405011A3A3A3E038
:101D1300120804121DCB9014ED742D800A121DDFDE
:101D230090162FE09014EDF090162CE09014EEF046
:101D330090162DE09014EFF090162EE09014F0F032
:101D4300901630E09014F1F0E4A3F0800A9014DED2
:101D53001208A400000000901693E02409F582E421
:101D63003400F583E09014BEF0E4FF7E0774022E86
:101D7300125CA5C313901335F064206007E0125C76
:101D830075EDF00F0EEEB40DE490000FE0541EC39A
:101D930013FED394004025125C76742DF00FEEC32E
:101DA300940AEE50044430800C125D5A125C75EDB7
:101DB300F00F125C81FE125C76EEF00F125C76E49B
:071DC300F090169204F0FFFE
:101DCA0022901340120898901340A3A3E0FEA3E0C8
:101DDA00FF129C2922A3A3E0FEA3E0FF129C292262
:10AF320024475057504C2C00000024475057504C87
:02AF42002C00E1
:10417300603C15AA000000000000000000000000E1
:10418300000000000000000000000000000000002C
:10419300000000000000000000000000000000001C
:1041A300000000000000000000000000000000000C
:10AAD2000EE0FD74AA2EF582E43415F583EDF00E36
:10AAE20074AA2EF582E43415F58322F583E0FD7411
:03AAF200AA2F2266
:105D6100783E7C137D017BFF7AAF79327E007F0A1A
:105D71001205B4E4FFFE743E2EF582E4341312AA38
:105D8100ED12AAE5EDF00F0EEEB407EAE4FE74A8F9
:105D91002EF582E4341412AAED12AAE5EDF00F0EED
:105DA100EEB407EA74AA2F12AAE5742CF00F90142E
:105DB100E2E0FE74AA2F12AAE5EEF00F74AA2F12E8
:105DC100AAE5742CF00FE4FE749A2EF582E43414E3
:105DD10012AAED12AAE5EDF00F0EEEB408EA74AACC
:105DE1002F12AAE5742CF00F9014DDE0FE74AA2F97
:105DF10012AAE5EEF00F74AA2F12AAE5742CF00F87
:105E0100E4FE74B22EF582E43414F583E0FD600EF5
:105E110074AA2F12AAE5EDF00F0EEEB409E474AAEC
:105E21002F12AAE5742AF00FE4FD7E01EF14FCEEB7
:105E3100C39C500912AAE2E06DFD0E80EFEDC4543F
:105E41000FFEC3940AEE5004243080022437FE74FE
:105E5100AA2F12AAE5EEF00FED540FFEC3940AEE3D
:105E61005004243080022437FE74AA2F12AAE5EED2
:105E7100F00F74AA2F12AAE5740DF00F74AA2F1255
:0E5E8100AAE5740AF00F74AA2F12AAE5E4F045
:015E8F0022F0
:104D7F00E4FEFDED90AF3C93FC12AAE2ECF00E0DB9
:104D8F00EDB407EF900C88E06401704EFD74FB2DBD
:104D9F00F582E43413F583E0FC12AAE2ECF00E0D79
:104DAF00EDB407E912AAE2742CF090140212AAD201
:104DBF00742CF00EE4FD74E72DF582E43413F583C3
:104DCF00E0FC12AAE2ECF00E0DEDB408E912AAE233
:104DDF00742CF00E9013EF024E35E4FD747E2DF51A
:104DEF0082E4340CF583E0FC12AAE2ECF00E0DED38
:104DFF00B407E912AAE2742CF0900C8512AAD274AF
:104E0F002CF00EE4FD748E2DF582E4340CF583E066
:104E1F00FC12AAE2ECF00E0DEDB408E912AAE2744E
:104E2F002CF00E900C96E0FC12AAE2EC12AAE074A1
:104E3F002CF00EE4FD74662DF582E4340CF583E05E
:104E4F00FF600B12AAE2EFF00E0DEDB406E712AA07
:104E5F00E2742DF00E900C6DE0FDC3940AED75F029
:104E6F000A500280148475F00A84E5F02430FC1295
:104E7F00AAE2ECF00EED75F00A84E5F02430FC1296
:104E8F00AAE2ECF00E12AAE2742AF00EE4FC7D0105
:104E9F00EE14FBEDC39B500C74AA2D12AAE5E06C27
:104EAF00FC0D80ECECC4540FFDC3940AED500424A8
:104EBF003080022437FD12AAE2EDF00EEC540FFD04
:104ECF00C3940AED5004243080022437FD12AAE265
:104EDF00EDF00E12AAE2740D12AAE0740A12AAE003
:024EEF00E4F0ED
:014EF100229E
:1069B700EF2BFFEE3AFEED39FDEC38FC9014F1A811
:1069C70004A905AA06AB07E075F00AA4FFE4FCFDDD
:1069D700EB2FFBEA35F0FAED39F9EC38F8A3E0FFD5
:1069E700E4FEEB2FFFEE3AFEED39FDEC38FC22F525
:1069F70083EEF075F001E49013370206BB9013366F
:106A0700E0FBA3E0FAA3E0F90205DA90133A1208D3
:106A17009890133AE0FCA3E0FDA3E0FEA3E0FFE4B7
:106A27001203BE7BBF7A0E799C783E12018E120349
:106A3700FC90133A020898AF03AE021206667C0078
:106A47007D0A120666ED2430229014EF7BE87A0364
:106A5700E0FFE4FCFDFEF9F80206E79014F0E0FF22
:106A6700E4FCFDFE7B64FAF9F80206E774ED2FF506
:106A770082E43414F583E024D0F090133EE004F070
:106A8700227B017A0079CA901335E0FD22901339F1
:106A9700E0FFC322901339E004F0221205DAFF74F5
:106AA7000129F9E43AFA22F090133FE0FEA3E0FF50
:086AB700227B017A0079CA225A
:108F4B007F0A9014B2E4F0A3DFFC7F0A9014A8E42C
:108F5B00F0A3DFFC7F0A90149AE4F0A3DFFC7F0AF6
:108F6B009014E3E4F0A3DFFC7F0A9014F7E4F0A382
:108F7B00DFFC7F0A9014EDE4F0A3DFFC7F0A901472
:108F8B00D3E4F0A3DFFCE49014A4F0A3F09014BCA2
:108F9B00F0A3F09014DE1208A400000000E490147B
:108FAB00A6F0A3F07F0A9014C9E4F0A3DFFC7F0ABC
:088FBB009014BFE4F0A3DFFCF9
:018FC300228B
:10949300E4FF74F72FF582E43414F583E024D0F06D
:1094A3000FEFB403ED9014F7126A659014F8126984
:1094B300C6E41203BE7BF67A287994784112018EB2
:1094C3001203FC129C2990162FE09014F7F09016CB
:1094D3002CE09014F8F090162DE09014F9F090160B
:1094E3002EE09014FAF0A3742EF0901630E090144E
:0594F300FCF0E4A3F011
:0194F8002251
:104748009014EDE0642D60030247E090133E04F0FE
:1047580090133EE0FFC394065005126A7380F1126D
:104768006A50C004C005C006C0079014EE7B107ADA
:1047780027126A57D003D002D001D000EF2B12695C
:10478800EBC004C005C006C007126A62D003D0029D
:10479800D001D0001269B7126A129014DE1208A470
:1047A8000000000090133AA3A3E0FEA3E0FF129CD0
:1047B8002990162FE09014EEF090162CE09014EF4C
:1047C800F090162DE09014F0F090162EE09014F171
:1047D800F0901630E00248DAE490133EF090133E71
:1047E800E0FFC394065005126A7380F19014EEE05E
:1047F800FFE4FCFDFE7B107A27F9F81206E7C004F7
:10480800C005C006C0079014EDE0FFE4FCFDFE7B88
:10481800A07A867901F81206E7D003D002D001D039
:1048280000EF2B1269EBC004C005C006C007126A6E
:1048380050D003D002D001D000EF2B1269EBC00496
:10484800C005C006C007126A62D003D002D001D0EA
:10485800001269B7126A1290133AE0FCA3E0FDA3B4
:10486800E0FEA3E0FFE41203BE9014DE1208989065
:10487800133AA3A3E0FFA3E090133FCFF0A3EF12F6
:104888006AAEE4FCFD7BA07A867901F812A1FFEFFD
:1048980024309014EDF090133FE0FAA3E0FB7C275E
:1048A8007D10FF126A409014EEF07C037DE8126AD6
:1048B8003EA3F090133FA3E07C007D64FF126A40A2
:1048C8009014F0F07C007D0A126A3EA3126AAE12C0
:0948D8006A459014F2F0E4A3F02B
:0148E10022B4
:10AE2100E4FF1205DAB43A04EF04FF22126AA60F16
:06AE3100EFB47DEE7F008E
:01AE370022F8
:10A00900E4FE126AA2EF643E601174B22EF582E496
:10A019003414F583EFF00EEEB40AE7E4FE126AA2F7
:10A02900EFB42C047D0180027D00EFB43A047C0179
:10A0390080027C00EC4D701174C92EF582E4341451
:09A04900F583EFF00EEEB40AD429
:01A0520022EB
:0B51CD00901336EBF0A3EAF0A3E9F02A
:1051D800AF058FF01269FD126A04FF1269FAEFB485
:1051E80040047E0180027E00EFB42F047F0180021C
:1051F8007F00EF4E6020E4901339F0126A94940710
:105208005014126A04FE74BF2FF582E43414126934
:10521800F6126A9B80E5E4901339F0126A949408B8
:105228005014126A04FE74A82FF582E4341412692B
:10523800F6126A9B80E59014AFE09014E21269F9C7
:10524800E4901339F0126A9494095014126A04FE17
:10525800749A2FF582E434141269F6126A9B80E579
:105268009014A2E09014DDF0126A04FF9014BE12AC
:1052780069F9EF645F70030253339014DE1208A4D7
:1052880000000000901336E0FBA3E0FAA3E0F990D9
:1052980000031205F3642F6003025333901339F0AF
:1052A800126A9494035014126A04FE74E32FF58270
:1052B800E434141269F6126A9B80E51269FAE490E4
:1052C8001339F0126A9494035014126A04FE74F7A6
:1052D8002FF582E434141269F6126A9B80E5129461
:1052E80093126A04642F70439000011205F364411D
:1052F80070399000021205F3643D702F75F00112A9
:1053080069FE1269FA1269FAE4901339F0126A9484
:1053180094065014126A04FE74ED2FF582E43414D6
:0B5328001269F6126A9B80E5124748EC
:015333002257
:1093BF00126AB812A0097A0079CA12AE2190133539
:1093CF00EFF07002FF22901335E0FD24CAF582E41E
:1093DF003400F583E024D9603224F8602124F5604D
:1093EF002D24FD601414602924FE601724E0601BF7
:1093FF00243F7020126AB8800D126A888008126AA2
:10940F00888003126A881251CD800C7F02227F035D
:09941F00227F04227F05227F0157
:019428002221
:109DE000900C88E07015FF12645DE4FF129E2990CC
:109DF00014BCEEF0A3EFF0E4FF802230032A7F01D1
:109E000012645D7F01129E299013AFE0FCA3E0FD78
:109E100012A47F9014BCEEF0A3EFF07F011277D86C
:109E20009014A6EEF0A3EFF02212877E9014A4EE19
:059E3000F0A3EFF02299
:10A7D000128F4B121A73BF0102800F126AB8E4FD88
:10A7E0001257351293BFEFB4010A129DE012669022
:0CA7F0007F018005126690E4FF12729F4A
:01A7FC00223A
:109C8400901362E0FBA3E0FAA3E0F990169AE0FFD8
:109C940004F08F8275830022901362E0FBA3E0FA44
:109CA400A3E0F990169AE0FE04F08E82758300EF2B
:109CB400020632F0901362E0FBA3E0FAA3E0F9227B
:109CC400901367E02402F582E43400F583E022EB8C
:089CD400F0A3EAF0A3E9F0227D
:10A1BB00901368129CD3EDD3940040379013681220
:10A1CB009C87742D120632EDC3940AED500B24308C
:10A1DB00FF901368129CBB801775F00A842430FF24
:10A1EB00901368129C9FED75F00A84E5F02430FF04
:04A1FB00129CA722E9
:09A34D00901368129CD3A3EDF0FB
:10A35600A3F090136BE02406FFE433FEA3E0FDC3F5
:10A366009FEE6480F8748098501B74022D129CCA6C
:10A37600C313FF64206006901368129C9F90136CB1
:05A38600E004F080CDB1
:01A38B0022AF
:09573500901362129CD3A3EDF065
:10573E00E490169A129CB77D0712A34D129CB89056
:10574E00000F125872129C84743E120632E4FD123F
:10575E00A34D129CB8900008125872901367740DE6
:10576E00F0E4901366F0129CC420E042129C847404
:10577E002C120632901367E004F0E0FD12A34D9058
:10578E001367E02406129CB7129CC4541EFFC31369
:10579E00FD12A1BB129CC430E708129C84742A121D
:1057AE000632901366E004F0E0C3940840B89013FC
:1057BE0065E06401703B900C78E064017033129CDC
:1057CE0084742C120632E4FC74662CF582E4340CDC
:1057DE00F583E0FF6008129C9C0CECB406EA129C68
:1057EE00B8900C6DE0FD12A1BB129C84742A1206B7
:1057FE0032129C84743A120632901367E02403F03E
:10580E00E0FC9002F2E0FFECC39F502074022C12D9
:10581E009CCAFF129C9C90169AE0D394BE400A122A
:10582E009C84747E12063280030C80D690169AE009
:10583E0024FFFFE434FFFE129CB88F828E83120584
:10584E00F390169AB40D02800B129C92740D1206F0
:10585E003290169A129C92740A120632129C8FE49F
:03586E00120632ED
:0C58710022E0541EFFC313FD12A1BB2255
:0AB08F00740129F9E43AFA0205DA27
:10AF4400EF540FFFD39409EF50042430FF22243729
:02AF5400FF22DA
:10A4430012B08FFEE4FF12B08FFD642A6008ED6E38
:10A45300FE0FEFB47EF012B08FFD12B08FFCEEC48E
:10A46300540FFF12AF44EF6D60037F0022AF06125B
:0BA47300AF44EF6C60037F00227F010C
:01A47E0022BB
:10AC1D007B017A1179AE12A443EF7002FF227B0102
:0FAC2D007A11792E12A443EF7002FF227F0122C9
:06B0EC0048454C4C4F00EA
:1041B3004A1422000000000000000000004D140A11
:1041C300000000000000000000000000004F13FB8F
:1041D3000000000000000000000000000000004F8D
:1041E30013E70000000000000000000000000000D2
:1041F3000042141700004213E000004213E20000E3
:104203004713B1000000000000004313D300000077
:104213004A13D6000000000000000000004A13C546
:0A4223000000000000000000000091
:103CBA00901335E0FBA3E0FAA3E0F98F8275830045
:103CCA000205F3EF2BFFEE3AFEED39FDEC38FCA8C6
:103CDA0004A905AA06AB07E075F00AA4FFE4FCFDF7
:103CEA00EB2FFBEA35F0FAED39F9EC38F8A3E0FFEF
:103CFA00E4FEEB2FFFEE3AFEED39FDEC38FC22EB49
:103D0A002430F07B0AE4FAF9F8901341E0FCA3E0CE
:103D1A00FDA3E0FEA3E0FF22FD74222EF582E43427
:103D2A0014F583EDF00E0F74222EF582E43414F5A7
:103D3A008322E0FF901338E0FE04F0740A2EF58225
:103D4A00E43414F58322E024D0FFE434FFFE7C003F
:103D5A007D0A020654EBF0A3EAF0A3E9F0E422128A
:103D6A000772E47B0AFAF9F8020772E024D075F0C8
:103D7A000AA4FFA3E024D02F2290133AE0FFE4FC28
:103D8A00FDFE22901335E0FBA3E0FAA3E0F922E05E
:103D9A00FE04F074FB2EF582E43413F58322120735
:103DAA0072E4FB7A01F9F822F0A3F0A3F0A3F0A3DE
:103DBA00F022AA06AB07E024D0FFE434FFFE7D64BC
:103DCA00120654EF2BFFEE3AFE22901346E0FAA3B6
:103DDA00E0FB7C017D90FFAE02120666ED4C227478
:103DEA00E72FF582E43413F583227B017A1179AE49
:103DFA0022901346E0FEA3E0FF7C007D6412066673
:103E0A00ED4C22901338E0FF04F0740A2F2224D0DC
:103E1A00FDEC34FFCD2FFFED3EF0A3EFF0223EF58F
:103E2A0083EDF0901336E004F022F0EFF58275830B
:103E3A0000A3227B64FAF9F80206E7901335E0FE44
:103E4A00A3E0FF22E0F8A3E0F9A3E0FAA3E0FB2253
:103E5A00E4901335F0A3F022F0901338E004F02236
:103E6A00D39013BAE09F9013B9E02224D0FEE43431
:103E7A00FFF0A3CEF022F582E433F5830205F37B4B
:0F3E8A00E87A03F9F80206E7901335E004F02216
:10968A00900D19E0605C123DAB90141D123D16124C
:10969A003DA8123DA8120772AD077F007EFE12ACEC
:1096AA0078123DAB90141D123D16123DA812077296
:1096BA00AD077F017EFE12AC78123DAB90141D12ED
:1096CA003D16120772AD077F027EFE12AC78901427
:1096DA001DE0FCA3A3A3E0FFE4AD077F037EFE1217
:0396EA00AC782237
:10A7FD0090141D1208A400000000E4FDFF12A82211
:10A80D007F0112A8227F027EFE12AC78E4FD7F0349
:0DA81D007EFE02AC787EFE12AC78E4FD22D7
:107A29009013F6E0700F04F09014191208A40000E6
:107A39000000027AAC9013787401F0A37413F0A3D8
:107A490074C5F0A37401F0A37413F0A374FBF0A33D
:107A59007401F0A37413F0A374E7F07B017A13792E
:107A6900D61299991203FC90141912089890141DB2
:107A7900123D16901419123E4EEF2B123CFEA31222
:107A890008987F007E657DCD7C1D90141D123E4EA9
:107A9900D3120828400A90141D1208A400000000FF
:107AA90012968AE4FF74FB2F123DA0E0FE74D62FD4
:107AB900F582E43413F583EEF00FEFB409E7E4FF40
:107AC900123DE9E0FE74C52FF582E43413F583EE27
:087AD900F00FEFB40AEA7F018F
:017AE1002282
:107B9A00E49013F6F0900D19E0700D90141D120880
:107BAA00A400000000027C317F007EFE12ACCEBF32
:107BBA00FF0612A7FD027C317F01127C3CFBFA7999
:107BCA0001F81206E7C004C005C006C0077F00120C
:107BDA007C3CFBFAF978011206E7D003D002D00107
:107BEA00D000EF2B123CFEC004C005C006C0077FC0
:107BFA0002127C46FB7A01F9F81206E7D003D0029A
:107C0A00D001D000EF2B123CFEC004C005C006C054
:107C1A00077F03127C46D003D002D001D000123C69
:107C2A00FC90141D1208989014191208A400000060
:107C3A0000227EFE12ACCEE4FCFDFE227EFE12ACD9
:067C4A00CEE4FCFDFE2269
:0375490090133567
:10754C00123D5FFFFE901335123CBD6009B42C0157
:10755C000E0FEEB401EF901335123CBDFD642C7090
:10756C0003027623E4FE901335123D90EE24221292
:10757C003D34EDF00E0F123CC5123D22743AF00E64
:10758C00123CC5FD123D31EDF00E0F123CC5123D03
:10759C0022743AF00E123CC5FD123D31EDF00E0F87
:1075AC00123CC5FD123D31EDF074222408123D341D
:1075BC00E4F0900C8AE0FFC3940D901422E0501874
:1075CC0024D075F00AA4FEA3E024D02EFEC3740DC3
:1075DC009FFFC3EE9FFC800C123D76FF900C8AE05F
:1075EC0024F32FFCECC39418400474E82CFCECFF3F
:1075FC009013E5E4F0A3EFF075F00A8424309014B6
:10760C0022F0EC75F00A84E5F02430A3F0901428F5
:07761C00123D759013E4F02C
:017623002244
:033E99009013354E
:103E9C00123D5F901343123DB2FF901338F0901314
:103EAC0035123CBD6011B42C06901338E004F00FB1
:103EBC00901338E0B409E7901335123CBDFE642C26
:103ECC00700302403C901335123D90901339EE1262
:103EDC003E341205F390133A123E34A31205F390BC
:103EEC00133B123E34A3A31205F390133CF0EF24C2
:103EFC0004123E8090133DF074052F123E809013F7
:103F0C003EF0FB901339123D75901344F090133B27
:103F1C00123D75901345F090133DE0FF7E00123D6D
:103F2C0058EB2FFFEC3ECF24C0CF3405901346F056
:103F3C00A3EFF0C39013E6E094089013E5E094002F
:103F4C004003023FE6901344E004F0E024E26026D4
:103F5C0014604014606024036003023FE6123DD4F9
:103F6C006078EB54037005123DFB706E901345E0C6
:103F7C00640270668017123DD4600AEB5403705AC9
:103F8C00123DFB6055901345E06402704D90134454
:103F9C0004801C901345E0FF6404600EEF6406601F
:103FAC0009EF64096004EFB40B309013447401F012
:103FBC00A3E004F080249013447401F0A3E004F017
:103FCC00E0C3940D4014901347E004F07006901376
:103FDC0046E004F09013457401F0E4901338F0902F
:103FEC001346E0FEA3E0FF129C2990162C123D3CD8
:103FFC00EFF090162D123D3CEFF090162E123D3C3A
:10400C00EFF0901630123D3CEFF0123E0D123D4891
:10401C00742DF090134512403D123E0D123D487424
:10402C002DF090134412403D123E0D123D48E4F029
:10403C0022E0FF7E00129C2990162EE0FF90133890
:10404C00E0FE04F0740A2EF582E43414F583EFF0EC
:10405C00901630E0FF901338E0FE04F0740A2EF551
:09406C0082E43414F583EFF02224
:10A9A900900C89E0B40104D2A78002C2A7E49014F4
:10A9B90017F0A3F09013AFF0A3F0C203127B9AE44F
:07A9C9009013E4F0C2052227
:03A82A0090133553
:10A82D00123D5FFFFE901335123CBD6009B42C0143
:10A83D000E0FEEB402EF901335123CBDB44105D2AC
:08A84D00037F0122C2037F001A
:01A8550022E0
:037AE200901335C9
:107AE500123D5FFFA3F0123CBA6011B42C0690134F
:107AF50038E004F00F901338E0B403EAE49013384B
:107B0500F0123D997430F0E4FE123CBAFD90133842
:107B1500E0FC04F074FB2C123DA0EDF00F0EEEB46A
:107B250009E7123CBAB42C030F80020F0F123CBABE
:107B3500FE901338E0FD04F074FB2D123DA0EEF02D
:107B4500901338123D99E4F00F0F901338F0FE12A0
:107B55003CBAFD901338E0FC04F074E72C123DECC0
:107B6500EDF00F0EEEB40AE7123CBAB42C030F8009
:107B7500020F0F123CBAFF901338E0FE04F074E7D1
:107B85002E123DECEFF0901338E0FF04F0123DE9C2
:047B9500E4F07F0198
:017B990022C9
:03A2C900901335BA
:10A2CC00123D5FFFFE901335123CBD6009B42C01AA
:10A2DC000E0FEEB407EF901335123CBD9013D3F074
:10A2EC000F123CC59013D4F0E4A3F09013D4E0B457
:0EA2FC002C0C9013D3E0A3F09013D37430F029
:01A30A002230
:0B32E800901335EBF0A3EAF0A3E9F02F
:1032F3009013411208A4000000009013B1742D1222
:103303003DB2A3F0E4A3F0901338F0FF123D8DA378
:10331300E0F582123CC7FE600BB42C010F123E6332
:10332300EFB409E8123D8DA3E0F582123CC7FBB46C
:103333002C129014217401F09013411208A4000080
:1033430000008054E4901421F0EBB42D09E49013B1
:1033530045123E6280069013457401F0E4901339E0
:10336300F0123D8DA3E0F582123CC7FF642E603559
:10337300EF24D0FF901339E0243AF582E43413F5B7
:1033830083EFF0901339E004123E62A3E0D3940577
:1033930040CF9014217401F09013CF1208A40000C1
:1033A30000007F0022901339E024FE601014602592
:1033B3001460392403705D123D8302346090133A24
:1033C300E075F00AA4FFA3E07C002FFFEC35F0FECC
:1033D300E4FD023460123D83123E3DA804A905AA10
:1033E30006AB0790133B123CE102346090133B128F
:1033F3003D86123E3DC004C005C006C007123D8392
:10340300123E89D003D002D001D00090133C123C6D
:10341300CD02346090133B123D86123E89C004C036
:1034230005C006C007123D837B107A27F9F8120600
:10343300E7D003D002D001D000EF2B123CFEC00432
:10344300C005C006C00790133C123D86123E3DD016
:1034530003D002D001D00090133D123CCD90134114
:10346300120898901345E09013417008123D16120C
:1034730008048003123D169013CF120898123D13CF
:10348300E41203BE7BA17AF87951784012018E12BF
:1034930003FC9013411208987BA07A867901780087
:1034A300123D13123D69EB24309013B1F0E47B100D
:1034B3007A27123D11123D69EB24309013B2F0E4E8
:1034C3007BE87A03123D11123D69EB24309013B36C
:1034D300F07B64123D0F123D699013B4123D091243
:1034E3003D699013B5123D09120772EB2430901316
:1034F300B6F0E4A3F0901345E070069013B1742D79
:03350300F07F0155
:0135060022A2
:106ABF00C39013BAE0940A9013B9E0940050037F87
:106ACF000022900D1CE0FEA3E07A002400FFEA3EB6
:106ADF00FE123E6A9E4007E4F0A3F07F02222003DD
:106AEF00037F00229013E0E07002A3E07002FF2208
:106AFF002004037F0022901417E0FEA3E0FF901301
:106B0F00AFE0FAA3E0FBD39FEA9E4006EB9FFFEABC
:106B1F0080139013AFE0FEA3E0FFC3901418E09F23
:106B2F00FF901417E09E901337F0A3EFF0901337F8
:106B3F00E0FEA3E0FFD394B4EE9400401074689F7E
:106B4F00901336F074019E901335F0800F90133729
:106B5F00E0FFA3E0901335CFF0A3EFF0D3901336FF
:106B6F00E09419901335E094004006E49013B98037
:106B7F002F900C62E024FE600F146010146011144B
:106B8F00601224047D14800E7D28800A7D3C8006CF
:106B9F007D5A80027D78EDFF123E6A94004016E424
:106BAF00F0A3F09013AFE0FFA3E0901417CFF0A382
:076BBF00EFF07F01227F00CF
:016BC60022AC
:0380F400901335B1
:1080F700123D5FFFFE901335123CBD6009B42C01A1
:108107000E0FEEB407EF901335123CBDB42C09E403
:108117009013E0123DB4FF22E4FE901335123CBDEC
:10812700FD642E601074382EF582E43413F583ED68
:10813700F00F0E80E5EE24FD600C047021901338DB
:10814700123D50A3800F901339123D5090133812EF
:108157003DBC90133AE09013E0123E18800A90134A
:1081670038E09013E0123E759013E0E0FCA3E0FDC9
:10817700E41203C37B567A0E79ED783F12018E1213
:0C81870003FC9013E2EEF0A3EFF07F0089
:0181930022C9
:0380520090133553
:10805500123D5FFFFE901335123CBD6009B42C0143
:108065000E0FEEB408EF901335123CBDB42C05C2CB
:10807500047F0022E4FE901335123CBDFD642E60A2
:108085001074382EF582E43413F583EDF00F0E806D
:10809500E5EE24FD600C047021901338123D50A3C9
:1080A500800F901339123D50901338123DBC901338
:1080B5003AE09013AF123E18800A901338E09013FF
:1080C500AF123E75D2049013AFE0FEA3E0FF129C01
:1080D5002990162DE09013F7F090162EE09013F8E6
:0E80E500F0901630E09013F9F0E4A3F07F0164
:0180F300226A
:108535002005030285C9C205123E5A123E4524FB99
:10854500F58274133EF583E0FD747E2FF582740C7D
:10855500123E287003123E92901335E07004A3E09A
:10856500640870D7123E5A123E4524E7F58274130B
:108575003EF583E0FD748E2FF582740C123E287053
:1085850003123E92901335E07004A3E0640970D79E
:1085950012A4BB129F747BFF7AB079EC12A67C12F1
:1085A5003E5A123E45C3EE94025019745E2FF58271
:1085B500740C3EF583E0FF12B0C6123E2D70031217
:0485C5003E9280DE84
:0185C900228F
:108CD00012AC1DEF6401707A123DF412A82A200331
:108CE00003C20522123DF4127549123DF4123E9959
:108CF000123DF4127AE2123DF41280F4123DF412A5
:108D00008052EF24FF92047B017A11792E1232E80F
:108D10007B017A11792E12A2C9122966128535902B
:108D20000C88E06401702B900C63E0600DA3E0FF01
:108D30009013E4E0B5070312A742E49013B8F09053
:108D40000C62E0600D126ABF9013B8EFF06003127E
:038D5000A7422215
:104BF800E4FBFA7842E0FCA3E0FDA3E0FEA3E0FFBB
:104C080022E4FBFA7841120297E4FBFAF9783F12A2
:104C1800009D1203FC901374EEF0A3EFF090137450
:104C2800E0FEA3E0FF7C007D0A120666EF2430FF59
:104C3800901371E0FBA3E0FAA3E0F9EF12062090CD
:104C48001374E0FEA3E0FF7C007D0A120666ED24E3
:104C580030FF901371E0FBA3E0FAA3E0F922E0240F
:104C6800D0FDE434FFFCE40203C37F007E407D1CDA
:104C78007C46E0F8A3E0F9A3E0FAA3E0FB22740184
:104C8800F0A37413F0A374E7F0A37401F0A37414F1
:104C9800F074A8A3F0A37401F0A3227B0104F0A38D
:104CA800740CF0A3748EF0A3EBF0A37414F0A37447
:104CB800A8F0A3EBF0A37414F0A3749AF02279205F
:104CC8007841E4FBFA02018EE4FBFA79B412009D04
:104CD800901390020898900D87E0FEA3E07C0024D2
:104CE80000FDEC3EFCE40203C374D32FF582E434E8
:104CF80014F58322EBF0A3EAF0A3E9F022EC120307
:104D0800BE90133C020898901374E0FCA3E0FD22C7
:104D180012018E90139D020898F0901630E09014BE
:104D2800D8F0E4A3F0227BCD7ACC79CC783D02018F
:104D38008E7B0A7AD77923783C02018E1203FCE431
:104D48000203BE8F827583001205F3FE22E4FBFA8C
:104D5800F978402290166012089890166822F09010
:104D6800162CE09014D4F0227A0F79497840020288
:074D78009790134002089818
:10AB3B009013A11208987FDA7E0F7D497C40901309
:10AB4B00A1124C7A12018EE4FBFA7934784312028B
:02AB5B0097223F
:06738800901381124CFC81
:10738E00E4FF901381124C5D124D4B748C2FF582DD
:10739E00E43413F583EEF00FEFB408E690138E127B
:1073AE004C66124CC6C004C005C006C00790138FB1
:1073BE00124C66D003D002D001D00012009DC00442
:1073CE00C005C006C007901391124C66124D2ED008
:1073DE0003D002D001D00012009DC004C005C0062B
:1073EE00C007901392124C66124D39D003D002D0C2
:1073FE0001D00012009D90138812089890138C12E1
:10740E004C66124CC6C004C005C006C00790138D52
:10741E00124C66D003D002D001D00012009DC004E1
:10742E00C005C006C0077970901388124BF812027F
:10743E0097D003D002D001D00012009D9013841279
:10744E000898901393E0B4530F901384124BFD12CF
:0E745E0003AD901384120898901384124BFD16
:01746C0022FD
:0667A400901381124CFC71
:1067AA00E4FF901381124C5D124D4B748C2FF582CD
:1067BA00E43413F583EEF00FEFB409E690138F1269
:1067CA004C66124CC6C004C005C006C007901390A0
:1067DA00124C66D003D002D001D00012009DC00432
:1067EA00C005C006C007901392124C66124D2ED0F7
:1067FA0003D002D001D00012009DC004C005C0061B
:10680A00C007901393124C66124D39D003D002D0B0
:10681A0001D00012009D90138812089890138D12CF
:10682A004C66124CC6C004C005C006C00790138C43
:10683A00124C6679C87842124CCAD003D002D001F1
:10684A00D00012009DC004C005C006C00790138E78
:10685A00124C66D003D002D001D00012009DC004B1
:10686A00C005C006C007E4FBFA7970784290138825
:10687A00124BFD120297D003D002D001D0001200B1
:10688A009D901384120898901394E0B4570F9013B4
:10689A0084124BFD1203AD9013841208989013844E
:0368AA00124BFD91
:0168AD0022C8
:1059C30012AB3B901391120898901389124BFD125E
:1059D300AB3B901395120898901395124C7A901341
:1059E30091124BFD12009990139912089890138D00
:1059F300124BFD12AB3BC004C005C006C007901399
:105A030085124BFD12AB3BD003D002D001D0001264
:105A13000099124D55120297124ACEC004C005C018
:105A230006C0079013A51208A440000000D007D0B9
:105A330006D005D004125334C004C005C006C00705
:105A4300901395124BFD124AB8C004C005C006C09E
:105A530007901391124BFD124AB8D003D002D00124
:105A6300D00012018ED003D002D001D00012018EDB
:105A7300C004C005C006C007124D55901399124BC0
:105A8300FD120297124ACEC004C005C006C007909B
:105A930013A51208A440000000D007D006D005D0FB
:105AA30004125334D003D002D001D00012009D124F
:105AB3007E5E12A4F6124D55124D1890139D124B93
:105AC300FD7B197A5179C77845124D1890139D12B1
:105AD3004C7212018EE4FBFAF9783F12009D126FAB
:105AE300D7E4FBFA79207841120297124D1B9013E9
:045AF3009D124BFDB8
:015AF700228C
:1099990012738890166C120898901378124C5D1205
:1099A90067A490166812089890137B124C5D127385
:1099B9008890166412089890137E124C5D1267A461
:1099C900124D5C124BFD9013851208989016641283
:1099D9004BFD901389120898901660124BFD901355
:0E99E9008D12089890166C124BFD1259C32275
:05645D00901371EFF047
:106462007009901378124CA312655E901371E0B418
:106472000118901378124C86124CBE7B017A137964
:10648200FB129999901670120898901371E0B40259
:10649200249013787401F0A3740CF0748E124C9B48
:1064A2007413F0A374FB124C9C7413F0A374E7F002
:1064B2007B0112655EE4901374F0901374E0FFC3E5
:1064C2009408500D124CF1E4F0901374E004F08043
:1064D200E9901670124C7212033450289016701202
:1064E2004BFD12656C9014D3742A124D66A3742E60
:1064F200F090162DE09014D6F090162EE09014D75E
:10650200124D212279C8901670124BF8120297127E
:10651200656C90162FE09014D3124D6690162DE004
:106522009014D5F090162EE09014D6F0A3742E128B
:106532004D21901374F0901374E0FFC39403501B29
:10654200124CF1E0B43014901374E024D3124CF4E2
:0B6552007420F0901374E004F080DB74
:10655D00227A0C797E12999990167012089822124F
:0E656D0003FC901372EEF0A3EFF0129C2922B3
:108BC900AB07AA06A905A804901388124BFD120049
:108BD90099C004C005C006C007901384124C7A904E
:108BE900138C124BFD120099901398120898D00714
:108BF900D006D005D0041282CF124CD8E4FFFE7DF6
:108C0900347C43901390124C7A12018E1203AD7B7F
:108C1900D8124D70124CD8901390124BFD78421215
:108C29004CD0E4FFFEFDFC901390124C7A120334F1
:108C3900500B901390124BFD7843124CD090139027
:038C4900124BFDCE
:018C4C002205
:1099F70012738890166C120898901377124C5D12A8
:109A070067A490166812089890137A124C5D127327
:109A17008890166412089890137D124C5D1267A403
:109A2700124D5C124BFD9013841208989016641225
:109A37004BFD901388120898901660124BFD9013F7
:0E9A47008C12089890166C124BFD128BC922DF
:05877E00901371EFF003
:108783007018901377124CA37A0C797E1299F71212
:1087930003FC901372EEF0A3EFF0901371E0B401B9
:1087A3000C901377124C86124CBE1287F6901371FD
:1087B300E0B402239013777401F0A37413F0A3744D
:1087C300E7124C9C740CF0A3747E124C9C740CF056
:1087D300A3748EF01287F6D3901373E0946790130B
:1087E30072E094014004E4F0A3F0901372E0FEA35E
:0287F300E0FFA5
:1087F500227B017A1379FB1299F71203FC9013720D
:06880500EEF0A3EFF022EB
:10A1760090133812089890133C124BFDA3124C7A98
:10A186001203345004E4FEFF2290133C124C7AA3CF
:10A19600124BFD120099901338124C7A1202971244
:10A1A600635BE4FBFA7934784312018E7BDA124D55
:05A1B600701203FC2201
:0577D800901335EFF0F5
:1077DD00702B901670124BFD124D44C004C005C0A5
:1077ED0006C007124CDE124D099014DE124BFD122D
:1077FD004D79D007D006D005D00412789890133566
:10780D00E0B4012E901670124BFD124D44C004C011
:10781D0005C006C0079013CF124BFD124D059014F5
:10782D00DE124BFD124D79D007D006D005D00412D3
:10783D007898901335E064027033901670124BFDFA
:10784D00124D44C004C005C006C0079013CF124BA3
:10785D00FD124D05124CDE124D79D007D006D00524
:10786D00D00412A176901336EEF0A3EFF0D390135F
:10787D0037E0945A901336E094004006E4F0A37478
:0A788D005AF0901336E0FEA3E0FF6E
:0D7897002212A176901336EEF0A3EFF0223E
:10A47F00901371ECF0A3EDF0C39013B0E09F901325
:10A48F00AFE09E5010901371E0FCA3E0FDC3EF9D71
:10A49F00FFEE9CFE22C3901372E09FFF901371E0BA
:0CA4AF009EFEC374689FFF74019EFE2295
:06549A00901371124CFC9E
:1054A000A3EEF0A3EFF0900D89E0FF600302558DAD
:1054B000124D0FC39417EC94005007124C5A744EBF
:1054C000804AC3ED9444EC94005007124C5A744E39
:1054D000801EC3ED9471EC94005007124C5A744531
:1054E000802AC3ED949EEC94005013124C5A7453CE
:1054F000120620124C5A900001744502558AC3EDE1
:1055000094CBEC94005013124C5A74531206201290
:105510004C5A900001742002558AC3ED94F8EC9423
:10552000005007124C5A7453802AC3ED9425EC9412
:10553000015013124C5A7457120620124C5A900004
:105540000174200255BCC3ED9452EC940150131227
:105550004C5A744E120620124C5A90000174570295
:1055600055BCC3ED9468EC9401124C5A500F744E24
:10557000120620124C5A9000017420800D742D12D6
:105580000620124C5A900001742D0255BCEF6401A4
:105590007012124D0FE41203C379F0124C099000FF
:1055A00001EF8018900D89E06402701A124D0FE42B
:1055B0001203C37920124C09900001EF12063290B9
:1055C0000002E4020632124C5A742D120620124CCC
:1055D0005A900001742D120632900002E412063235
:0955E000900D897401F012A4BBC6
:0155E900229F
:1078A4005620002D2D2D2E2D00404320002D2D2D52
:1078B4002D2E2D00685061002C00475053204F4658
:1078C4004620004B6D0047505320576169742E2E9B
:1078D4002E2000533A0020004B6D202020002D2D37
:1078E4002D00244130322C562C00576169742E002F
:1078F4000D0A00244130322C412C0050302D3E0022
:107904004B6D20002D2D005350443A004B6D202028
:1079140000414C543A004D2C00202D2D2D2D2D00CE
:10792400244130322C4F2C00475053204F46460000
:107934005350443A2D2D2D2D2D2D4B6D682020466E
:10794400697865642000616C743A2D2D2D2D2D2DE0
:107954004D002D2D2D2D202D2D202D2D20200024CA
:067964004630310D0A005F
:1020F50090137D74FFF0A37478F074BCA3F07B019A
:102105007A0079CA22E4FAF9F8901355E0FCA3E0C5
:10211500FDA3E0FEA3E0FF12A1FFE47B0AFAF9F8B4
:1021250012A1FFEB2430901352FFE0FBA3E0FAA3CA
:10213500E0F9EF020620E0901337FFE0FE04F074AB
:10214500C42EF582E43401F5832212062090135340
:10215500E475F0010206BBEEF0A3EFF0901367E023
:10216500FCA3E0FDA3E0FEA3E0FF229013557D0A4A
:10217500E0FEA3E0FF7C00020666E49000CAF09052
:10218500137D74FFF0A322FBE024D0FFE434FFFEAF
:102195007D0A120654A3E024D0FDEC34FFCD2FFFB9
:1021A500ED3E22901339E0FEA3E0FFE4FCFD7B64E5
:1021B500FAF9F81206E7A804A905AA06AB079013D1
:1021C5003BE0FEA3E0FFE4FCFDEB2FFFEA3EFEED66
:1021D50039FDEC38FC22901352E0FBA3E0FAA3E0B2
:1021E500F922120026740190137DF0A37401F0A367
:1021F50074C4227B01901335E0FCA3E0FDA3E0FF4E
:10220500A3E0901357CFF0A3EFF0901339E0FFA3AD
:10221500E0901359CFF0A3EFF090133BE0FFA3E05C
:1022250090135BCFF0A3EFF090133FE0221203BEB3
:102235007B8F7AC27975783D12018EE4FBFA79A01D
:10224500784012009DE4FBFA79207841120297123A
:1022550003FC90133DEEF0A3EFF07B0122E4FFFEBB
:102265007C41901367E0F8A3E0F9A3E0FAA3E0FB53
:10227500227A157944901335E0FCA3E0FDA3E0FF35
:10228500A3E022EC1203BE7B007A5079C3784702A3
:102295000297E0FCA3E0FDA3E0FEA3E02405FFE434
:1022A5003EFEE43DFDE43CFCE47B0AFAF9F822EF4E
:1022B500F0901337E0FF04F074C42F22E4FBFA78A2
:1022C5004112018EA804A905AA06AB0722EBF0A3CB
:1022D500EAF0A3E9F0A32212009990136702089887
:1022E500ED2430FF90135222120898901335E0FE2A
:1022F500A3E0FFE4FCFD22F583E0FDAC070F74C409
:102305002C22EF2430FF90135222AA06AB07E024BB
:10231500D0FFE434FFFE7D64120654EF2BFFEE3A46
:10232500FE2290137D7401F0A322E0FCA3E0FDECF6
:102335000203C3ED2430FF90135222EB2FFFEA3E38
:10234500FEE93DFDE83CFC020898901357CFF0A349
:10235500EFF090133DE0FFA3E0901359229013573F
:10236500CFF0A3EFF0901339E0FFA3E090135922CB
:1023750074FFF0A37478F0A374E222ECF0FEA3EDF1
:10238500F0FF7C007D64120666EF22E024D0FFE4B6
:1023950034FFFE7C007D0A0206541206209013537A
:1023A500227C007D0A020666EFF090162EE0FF22E1
:1023B500EFF0901630E0FF227B407A42790FF80269
:1023C50006E790133FE0901359F07B01227401F06A
:1023D500A37413F0A374F7221202970203FC1206EA
:1023E50020901353227B107A27F9F80206E77478B8
:0523F500F0A374F422C6
:06B0F20012210302A5314A
:094EF2009013521222D21208980A
:104EFB00E4FFFE7D347C4390135912226A12009D0D
:104F0B001222DFE4FBFA79A078411221611223DD32
:104F1B0090135D12215CC004C005C006C00790133E
:104F2B005D12232F79A01222C1D007D006D005D055
:104F3B00041222DCE4FBFAF978401221611223DD22
:104F4B0090135F12215CC004C005C006C00790130C
:104F5B005F12232FE4FBFAF978401222C6D007D058
:104F6B0006D005D0041222DC7D4012226212018E83
:104F7B001203FC901361EEF0A3EFF0E4FFFE7DB49F
:104F8B007C4290135512226A12009D1222DFE4FB21
:104F9B00FA792078411221611223DD9013631221DB
:104FAB005CC004C005C006C00790136312232F79A1
:104FBB00201222C1D007D006D005D0041222DC1259
:104FCB0021611203FC901365EEF0A3EFF0A3122105
:104FDB0064C004C005C006C00790136512232F12CE
:104FEB0022C9D007D006D005D0041222DC7DC01216
:104FFB00226212018E1203FC90135DA3E02441FD8B
:10500B009013521221DEED120620901363A3E024BD
:10501B0041FD9013521221DE900001ED12063290E9
:10502B00135FA3E02430900002120632901365A3A5
:10503B00E02430900003120632901361A3E0244168
:10504B00900004120632EF244190000512063290B4
:06505B000006E40206322B
:107C50009013521222D212238024309013521221F8
:107C60002E1221DB1205DAB4300574201206201220
:107C700021521221701223A612233812212F122111
:107C80005212217012233812212F1221521221DB9D
:107C9000744012214F901357122173EF122339129F
:107CA000212F1221529013571221731223381221BF
:107CB0002F1221521221DB742712214F90135912D7
:107CC0002173EF12233912212F12215290135912CE
:107CD000217312233812212F1221521221DB742218
:107CE00012214F1221DB742012214F90135BE0FF11
:107CF00090135212212F1221521221DBE40206208E
:10746D009013521222D21208987B807A96799878CE
:10747D000090135512216412A1FFEF1221299013D0
:10748D00521221DE1205DAB4300574201206209056
:10749D0013531221557B407A42790F780012210E39
:1074AD009013531221557BA07A8679017800122111
:1074BD000E9013531221559013521221DE742E1279
:1074CD0023E3122155E47B107A2712210C901353DC
:1074DD00122155E47BE87A0312210C9013531221EB
:1074ED00557B6412210A9013531221557B0A1221E8
:1074FD000A9013531221551222AD90135512216487
:10750D001221259013531221559013521221DE741E
:10751D00401223E31221559013521221DE742012D2
:10752D0023E3122155901359E012212B901353127E
:0C753D0021559013521221DEE4020620BA
:1071B5009013521222D21223801222E612212F900E
:1071C50013521221DE1205DAB4300574201206209E
:1071D5009013531221559013551221731223A612A1
:1071E50022E512212F901353122155901355122188
:1071F500731222E512212F90135312215590135229
:107205001221DE744012239F12215590135712212B
:1072150073EF1222E612212F90135312215590136A
:10722500571221731222E512212F90135312215563
:107235009013521221DE742E12239F1221559013A2
:1072450059122173EF1222E612212F9013531221A6
:10725500559013591221731222E512212F901353C1
:107265001221559013521221DE742712239F1221E9
:10727500559013521221DE742012239F122155902E
:10728500135BE0FF90135212212F901353122155D7
:0A7295009013521221DEE4020620DD
:105AF8009013521222D2ECF0A3EDF090135CE02444
:105B080032F090135BE03400F0D3A3E09463901379
:105B18005BE09400400E90135AE004F07006901376
:105B280059E004F0D390135AE09463901359E09429
:105B3800004012E4F0A3F0901358E004F0700690CF
:105B48001357E004F0D3901358E0943B901357E0B8
:105B580094004012E4F0A3F0901356E004F07006AD
:105B6800901355E004F090135EE090135570061200
:105B78002173EF801B7D6412217512230712212FD8
:105B88009013531221559013551221731223A6ED29
:105B980012230812212F90135312215590135512D6
:105BA8002173ED12230812212F90135312215590BF
:105BB800135712217312230712212F901353122106
:105BC80055901357122173ED12230812212F9013A9
:105BD800531221559013521221DE742E1206209072
:105BE80013531221559013591221731223071221AE
:105BF8002F901353122155901359122173ED12232C
:105C08000812212F90135312215590135DE0FF9035
:105C1800135212212F90135312215590135212210F
:055C2800DEE40206208D
:102966009013FC1223909013FB12230F9013FD1269
:10297600219B901335F0A3EFF09013FE12218D905A
:102986001337F0A3EFF090140112218D901339F054
:10299600FAA3EFF090140312218C90133BF0A3EFEF
:1029A600F0901405E090133FF0901350F0AF03AE93
:1029B60002E41221B2C004C005C006C00790133756
:1029C6001222F31223EAD003D002D001D000EF2B5B
:1029D600FFEE3A1221D31222AD1206E790134012EF
:1029E60022ED1223BDC004C005C006C007E47B0665
:1029F600FAF9F890134012216412A1FFD003D00215
:102A0600D001D00090134012234090134012229719
:102A160012A1FF901340120898900C75E070109068
:102A260013401221641223C77A15794412746D90EB
:102A36000C75E0640270161221A812223212227658
:102A460012234F12222890135BF0127C507A1379CE
:102A5600FB1221F890135DF0E4A3F0125AF8900CE3
:102A660075E0B401127B011222761223621222282B
:102A760090135BF01271B59013E81223909013E750
:102A860012230F9013E912219B901335F0A3EFF058
:102A96009013EA12218D901337F0A3EFF09013ED07
:102AA60012218D901339F0FAA3EFF09013EF122153
:102AB6008C90133BF0A3EFF09013F1E090133FF0EE
:102AC600901351F0AF03AE02E41221B2C004C00568
:102AD600C006C0079013371222F31223EAD003D0A0
:102AE60002D001D000EF2BFFEE3A1221D31222AD15
:102AF6001206E79013441222ED1223BDC004C0054E
:102B0600C006C007E47B06FAF9F890134412216464
:102B160012A1FFD003D002D001D00090134412239B
:102B26004090134412229712A1FF90134412089862
:102B3600900C75E070109013441221641223C77A2A
:102B460015791712746D900C75E06402701A1221D3
:102B5600A81222327A15791712227A12234F1222DC
:102B66002890135BF0127C507A1379E71221F890C3
:102B7600135DF0A37401F0125AF8900C75E0B401DD
:102B8600167B017A15791712227A122362122228ED
:102B960090135BF01271B5901350E0901340B44E51
:102BA60008122164122288800912216412228812D6
:102BB60003AD901348120898901351E0901344B453
:102BC6004508122164122288800912216412228883
:102BD6001203AD90134C1208987B017A1579039075
:102BE600134C12216490135912089890134812211D
:042BF60064024EF235
:10002600E4FEEEC39F50151221447420F074C52ED1
:0C003600F582E43401F583E4F00E80E66E
:01004200229B
:109D8A007F0A9001C4E4F0A3DFFCE4901337F07B70
:109D9A0064FAF9F890141D122164120772129C29B0
:109DAA0090162F12213BEFF090162C12213BEFF068
:109DBA0090162D12213BEFF090162E12213B122203
:109DCA00B4122147742EF090163012213B1222B49D
:059DDA00122147E4F036
:019DDF002261
:10587D00200879128B441223277416F0747D12219F
:10588D00011292EA1221847478F0A374A4122102F9
:10589D001259B5300F0C7401F0A37415F0A3746494
:1058AD00800A74FFF0A37478F0A374A7122102127A
:1058BD0092EA1221847478F0A374AD122102125968
:1058CD00B5300F0C7401F0A37415F0A37459800A50
:1058DD0074FFF0A37478F0A374B11221021292EA4E
:1058ED001221847478F0A374B80259469002F1E045
:1058FD0070231221847478F0A374BE122102125900
:10590D00BC1221EA1221021292EA1221847478F05B
:10591D00A374C7802420032A1221847478F0A37401
:10592D00CA1221021259BC1221EA1221021292EA64
:10593D001221847478F0A374C71221021292EA0224
:10594D0059AE3003621221847478F0A374D71221FA
:10595D00021292EA1223277413F0A374D3122102B8
:10596D001292EA1221847478F0A374DA12210212D1
:10597D0092EA129D8A1221EA1221021292EA122152
:10598D00847478F0A374DC1221021292EA90137DD4
:10599D003004051223D280031223751221021292B4
:1059AD00EA1220F51292EA221292EA90137D221247
:0659BD0092EA129D8A220D
:06840600901337120898E4
:10840C007F0A9001C4E4F0A3DFFCE490133BF090EE
:10841C001337E0FCA3E0FDA3A3EC33501BA3122203
:10842C00B9122147742DF0901337122164120804ED
:10843C00901337120898800C90133B1222B912211A
:10844C00477420F0901337A3122169129C299016BF
:10845C002FE090133B12213FEFF090162CE0FF9091
:10846C00133B122140EFF090162DE0FF90133B12BE
:10847C0021401223AD90133B1221401223B59013CF
:10848C003B122140EFF090133B1222B9122147E42A
:01849C00F0EF
:01849D0022BC
:109D33007D0A9001C4E4F0A3DDFCE4901337F01234
:109D43009C2990162FE0FF901337122140EFF090DB
:109D5300162CE0FF901337122140EFF090162DE000
:109D6300FF9013371221401223AD90133712214075
:109D73001223B5901337122140EFF09013371222BC
:069D8300B9122147E4F0D3
:019D890022B7
:1090AF0012370712217F7478F0A374E6122102128F
:1090BF0092EA7F0E1221E71221021292EA12218404
:1090CF007478F0A374EE1221021292EA1220F512B4
:1090DF0092EA1220F51292EA1220F51292EA122069
:1090EF00F51292EA1220F51292EA1220F51292EA84
:1090FF0012587D1221841223791221021292EA1240
:10910F0020F51292EA1221841223F31221021292F5
:04911F00EA02B0F2BE
:10A3CA007D0A9001C4E4F0A3DDFCE4901337F01297
:10A3DA009C2990162DE0FF9013371221401223ADCD
:10A3EA009013371221401223B5901337122140EFF0
:0CA3FA00F09013371222B9122147E4F052
:01A406002233
:1042400012370712217F7478F0A374F7122102123B
:1042500092EA2008147F0B1221E71221021243ED8B
:104260007414F0A374220242E21221847478F0A341
